{
  "contractName": "Voting",
  "abi": [
    {
      "inputs": [],
      "payable": false,
      "stateMutability": "nonpayable",
      "type": "constructor"
    },
    {
      "anonymous": false,
      "inputs": [
        {
          "indexed": false,
          "internalType": "string",
          "name": "proposalName",
          "type": "string"
        }
      ],
      "name": "ProposalAdded",
      "type": "event"
    },
    {
      "anonymous": false,
      "inputs": [
        {
          "indexed": true,
          "internalType": "address",
          "name": "voter",
          "type": "address"
        },
        {
          "indexed": true,
          "internalType": "uint256",
          "name": "proposalIndex",
          "type": "uint256"
        }
      ],
      "name": "Voted",
      "type": "event"
    },
    {
      "constant": true,
      "inputs": [],
      "name": "MAX_PROPOSALS",
      "outputs": [
        {
          "internalType": "uint256",
          "name": "",
          "type": "uint256"
        }
      ],
      "payable": false,
      "stateMutability": "view",
      "type": "function"
    },
    {
      "constant": true,
      "inputs": [
        {
          "internalType": "address",
          "name": "",
          "type": "address"
        }
      ],
      "name": "hasVoted",
      "outputs": [
        {
          "internalType": "bool",
          "name": "",
          "type": "bool"
        }
      ],
      "payable": false,
      "stateMutability": "view",
      "type": "function"
    },
    {
      "constant": true,
      "inputs": [],
      "name": "owner",
      "outputs": [
        {
          "internalType": "address",
          "name": "",
          "type": "address"
        }
      ],
      "payable": false,
      "stateMutability": "view",
      "type": "function"
    },
    {
      "constant": true,
      "inputs": [
        {
          "internalType": "uint256",
          "name": "",
          "type": "uint256"
        }
      ],
      "name": "proposals",
      "outputs": [
        {
          "internalType": "string",
          "name": "name",
          "type": "string"
        },
        {
          "internalType": "uint256",
          "name": "voteCount",
          "type": "uint256"
        }
      ],
      "payable": false,
      "stateMutability": "view",
      "type": "function"
    },
    {
      "constant": false,
      "inputs": [
        {
          "internalType": "string",
          "name": "proposalName",
          "type": "string"
        }
      ],
      "name": "proposeIdea",
      "outputs": [],
      "payable": false,
      "stateMutability": "nonpayable",
      "type": "function"
    },
    {
      "constant": false,
      "inputs": [
        {
          "internalType": "uint256",
          "name": "proposalIndex",
          "type": "uint256"
        }
      ],
      "name": "vote",
      "outputs": [],
      "payable": false,
      "stateMutability": "nonpayable",
      "type": "function"
    },
    {
      "constant": true,
      "inputs": [
        {
          "internalType": "uint256",
          "name": "proposalIndex",
          "type": "uint256"
        }
      ],
      "name": "getProposal",
      "outputs": [
        {
          "internalType": "string",
          "name": "name",
          "type": "string"
        },
        {
          "internalType": "uint256",
          "name": "voteCount",
          "type": "uint256"
        }
      ],
      "payable": false,
      "stateMutability": "view",
      "type": "function"
    },
    {
      "constant": true,
      "inputs": [],
      "name": "getProposalsCount",
      "outputs": [
        {
          "internalType": "uint256",
          "name": "",
          "type": "uint256"
        }
      ],
      "payable": false,
      "stateMutability": "view",
      "type": "function"
    }
  ],
  "bytecode": "0x608060405234801561001057600080fd5b50600080546001600160a01b031916331790556040805160a08101825260319181018281526002928291906109586060840139815260006020918201819052835460018101808655948252908290208351805160029093029091019261007b92849290910190610166565b5060208201518160010155505050600260405180604001604052806040518060600160405280602a81526020016109b9602a913981526000602091820181905283546001810180865594825290829020835180516002909302909101926100e792849290910190610166565b50602082015181600101555050506002604051806040016040528060405180606001604052806030815260200161098960309139815260006020918201819052835460018101808655948252908290208351805160029093029091019261015392849290910190610166565b5060208201518160010155505050610201565b828054600181600116156101000203166002900490600052602060002090601f016020900481019282601f106101a757805160ff19168380011785556101d4565b828001600101855582156101d4579182015b828111156101d45782518255916020019190600101906101b9565b506101e09291506101e4565b5090565b6101fe91905b808211156101e057600081556001016101ea565b90565b610748806102106000396000f3fe608060405234801561001057600080fd5b50600436106100885760003560e01c80638da5cb5b1161005b5780638da5cb5b146101f257806391751c131461021657806398e527d314610230578063c7f758a81461023857610088565b80630121b93f1461008d578063013cf08b146100ac57806309eef43e146101485780635c5ef33c14610182575b600080fd5b6100aa600480360360208110156100a357600080fd5b5035610255565b005b6100c9600480360360208110156100c257600080fd5b503561037e565b6040518080602001838152602001828103825284818151815260200191508051906020019080838360005b8381101561010c5781810151838201526020016100f4565b50505050905090810190601f1680156101395780820380516001836020036101000a031916815260200191505b50935050505060405180910390f35b61016e6004803603602081101561015e57600080fd5b50356001600160a01b0316610431565b604080519115158252519081900360200190f35b6100aa6004803603602081101561019857600080fd5b8101906020810181356401000000008111156101b357600080fd5b8201836020820111156101c557600080fd5b803590602001918460018302840111640100000000831117156101e757600080fd5b509092509050610446565b6101fa61056b565b604080516001600160a01b039092168252519081900360200190f35b61021e61057a565b60408051918252519081900360200190f35b61021e61057f565b6100c96004803603602081101561024e57600080fd5b5035610586565b3360009081526001602052604090205460ff16156102ba576040805162461bcd60e51b815260206004820152601760248201527f596f75206861766520616c726561647920766f7465642e000000000000000000604482015290519081900360640190fd5b6002548110610310576040805162461bcd60e51b815260206004820152601760248201527f496e76616c69642070726f706f73616c20696e6465782e000000000000000000604482015290519081900360640190fd5b60016002828154811061031f57fe5b6000918252602080832060016002909302018201805490940190935533808352928190526040808320805460ff1916909217909155518392917f4d99b957a2bc29a30ebd96a7be8e68fe50a3c701db28a91436490b7d53870ca491a350565b6002818154811061038b57fe5b60009182526020918290206002918202018054604080516001831615610100026000190190921693909304601f8101859004850282018501909352828152909350918391908301828280156104215780601f106103f657610100808354040283529160200191610421565b820191906000526020600020905b81548152906001019060200180831161040457829003601f168201915b5050505050908060010154905082565b60016020526000908152604090205460ff1681565b600254600a116104875760405162461bcd60e51b81526004018080602001828103825260248152602001806106f06024913960400191505060405180910390fd5b6040805160606020601f85018190040282018101835291810183815260029282919086908690819085018382808284376000920182905250938552505050602091820181905283546001810180865594825290829020835180516002909302909101926104f992849290910190610657565b50602082015181600101555050507f7e462b77205d9bc889740e6a08a3415c6040322fa001a664ca7838319e80d5f9828260405180806020018281038252848482818152602001925080828437600083820152604051601f909101601f19169092018290039550909350505050a15050565b6000546001600160a01b031681565b600a81565b6002545b90565b60606000806002848154811061059857fe5b90600052602060002090600202019050806000018160010154818054600181600116156101000203166002900480601f0160208091040260200160405190810160405280929190818152602001828054600181600116156101000203166002900480156106465780601f1061061b57610100808354040283529160200191610646565b820191906000526020600020905b81548152906001019060200180831161062957829003601f168201915b505050505091509250925050915091565b828054600181600116156101000203166002900490600052602060002090601f016020900481019282601f1061069857805160ff19168380011785556106c5565b828001600101855582156106c5579182015b828111156106c55782518255916020019190600101906106aa565b506106d19291506106d5565b5090565b61058391905b808211156106d157600081556001016106db56fe4d6178696d756d206e756d626572206f662070726f706f73616c7320726561636865642ea265627a7a723158207e401e6c06bfde59110a19e4b1354ec57eff0fe8f2624311695e37da4a23f61864736f6c6343000510003250726f706f73616c20313a20496e6372656173652046756e64696e6720666f72205075626c696320456475636174696f6e50726f706f73616c20333a20537570706f72742052656e657761626c6520456e6572677920496e69746961746976657350726f706f73616c20323a20496d706c656d656e7420556e6976657273616c204865616c746863617265",
  "source": "pragma solidity 0.5.16;\n\ncontract Voting {\n    struct Proposal {\n        string name;\n        uint voteCount;\n    }\n\n    address public owner;\n    mapping(address => bool) public hasVoted;\n    Proposal[] public proposals;\n    uint public constant MAX_PROPOSALS = 10;\n\n    event ProposalAdded(string proposalName);\n    event Voted(address indexed voter, uint indexed proposalIndex);\n\n    constructor() public {\n        owner = msg.sender;\n        // Initialize with some default proposals (optional)\n        proposals.push(\n            Proposal({\n                name: \"Proposal 1: Increase Funding for Public Education\",\n                voteCount: 0\n            })\n        );\n        proposals.push(\n            Proposal({\n                name: \"Proposal 2: Implement Universal Healthcare\",\n                voteCount: 0\n            })\n        );\n        proposals.push(\n            Proposal({\n                name: \"Proposal 3: Support Renewable Energy Initiatives\",\n                voteCount: 0\n            })\n        );\n    }\n\n    modifier onlyOwner() {\n        require(msg.sender == owner, \"Only the owner can execute this.\");\n        _;\n    }\n\n    function proposeIdea(string calldata proposalName) external {\n        require(\n            proposals.length < MAX_PROPOSALS,\n            \"Maximum number of proposals reached.\"\n        );\n        proposals.push(Proposal({name: proposalName, voteCount: 0}));\n        emit ProposalAdded(proposalName);\n    }\n\n    function vote(uint proposalIndex) public {\n        require(!hasVoted[msg.sender], \"You have already voted.\");\n        require(proposalIndex < proposals.length, \"Invalid proposal index.\");\n\n        proposals[proposalIndex].voteCount += 1;\n        hasVoted[msg.sender] = true;\n\n        emit Voted(msg.sender, proposalIndex);\n    }\n\n    function getProposal(\n        uint proposalIndex\n    ) public view returns (string memory name, uint voteCount) {\n        Proposal storage proposal = proposals[proposalIndex];\n        return (proposal.name, proposal.voteCount);\n    }\n\n    function getProposalsCount() public view returns (uint) {\n        return proposals.length;\n    }\n}\n",
  "sourcePath": "/Users/pratikpawar/Desktop/decentralized-voting-system/contracts/Voting.sol",
  "compiler": {
    "name": "solc",
    "version": "0.5.16+commit.9c3226ce.Emscripten.clang"
  },
  "schemaVersion": "3.4.16",
  "updatedAt": "2024-10-01T08:54:22.986Z",
  "devdoc": {
    "methods": {}
  },
  "userdoc": {
    "methods": {}
  }
}